:020000040000FA
:0600000094EF0FF0120066
:0400080033EF06F0DC
:06002A000200921F00001D
:10003000B3000000020000008C1F0000AA000000B6
:0400400006000000B6
:0C0044005EEC05F0FB0EDBCFF3FFDB06EB
:10005000F35000090AE0ACEC05F0FA0E17EC06F0DC
:10006000F3E1151CF1E1010E01D0000E8DEF05F05A
:100070005EEC05F03B0EE12402E3E168E652E16E3E
:10008000010EDB6A020EDB6AF90EDBCFF6FFFA0E19
:10009000DBCFF7FFFB0EDBCFF8FF0800F550DF6E7C
:1000A000DF5002E1B1EF04F0250EDF5C02E0A4EFC7
:1000B00004F0030EDB6A040EDB6A050EDB6A060E33
:1000C000DB6A070EDB6AC6EC04F02D0EDF5C0CE089
:1000D0002B0EDF5C09E0200EDF5C06E0230EDF5C08
:1000E00003E0300EDF5C1AE1DF50300A14E0130A3F
:1000F0000FE0030A0AE00B0A05E0060AE4E1030E3A
:10010000DB80E1D7030EDB82DED7030EDB84DBD797
:10011000030EDB86D8D7030EDB88D5D72A0EDF5C2B
:100120001BE1C2EC04F010EC05F010E0030EDB80E4
:1001300006680768130EDBCF0BF0140EDBCF0CF054
:10014000CAEC0EF0040E04C0DBFF03D0130EF9EC72
:1001500004F0C6EC04F00BD0090EDB6A67EC05F086
:1001600003E0DBEC05F0FAD7090EF9EC04F0030E1E
:10017000DBB0DB982E0EDF5C1BE1C6EC04F02A0E30
:10018000DF5C0BE1C2EC04F010EC05F003E1130EB0
:100190004BEC05F0C6EC04F00BD0090EDB6A67EC03
:1001A00005F003E0DBEC05F0FAD7090E4BEC05F0A7
:1001B000680EDF5C07E1C6EC04F0680EDF5C1DE151
:1001C000030E18D0740EDF5C17E07A0EDF5C14E0CB
:1001D000480EDF5C06E0540EDF5C03E05A0EDF5C85
:1001E00002E1020E07D06C0EDF5C03E06A0EDF5CFA
:1001F00004E1010E9EEC05F0C9DBDF506E0A01E15F
:100200007FD31E0A01E192D1200A01E18FD13F0A7A
:1002100001E149D11A0A01E146D10D0A01E143D1B8
:10022000200A01E140D13A0A01E13DD1200A01E171
:100230003AD1260A01E135D10D0A01E132D11A0A7B
:1002400001E1D9D0200A4AE0300A1FE0460A0EE058
:10025000250A01E083D3D950F90FE96EFF0EDA20A9
:10026000EA6E010EEE5E000EEE5AEE5AACEC05F0B0
:10027000250EE66E95DB03E1151C01E169D3A8ECC0
:1002800005F001E26BD3DB2A69D3080EDB6A040EAA
:10029000DB50010806E2040EDB0470EC05F0DB50D5
:1002A0008BDB080EDB5009E0030EDB50010B05E190
:1002B00072DB01E04DD3080EDB6A64DBEFCFDFFFBA
:1002C00020EC06F003E1151C01E142D3A8EC05F097
:1002D00001E3DB2A60DB01E141D33AD3070EDB50B7
:1002E00002080FE1ECEC05F0030EB3EC05F00E0E86
:1002F000EECFDBFF0F0EEECFDBFF100EEECFDBFFFE
:1003000020D0F70EDBCF17F0F80EDBCF18F0020E7F
:10031000175E000E185AF70E17C0DBFFF80E18C054
:10032000DBFF17C0E9FF18C0EAFFA3EC05F0166A6F
:100330000E0E14C0DBFF0F0E15C0DBFF100E16C033
:10034000DBFF0E0EDBCFE6FF0F0EDBCFE6FF100E5E
:10035000DBCFE6FFA5EC0EF0E552E552E552130EB9
:1003600005C0DBFF140E06C0DBFF060EDB5005E008
:10037000130EE7EC05F001E26ADB0BEC06F002E29B
:10038000130E37DBCEEC05F006E0040EE7EC05F0CB
:1003900002E2050E2EDB030EDBB005D0FCDA01E035
:1003A000D7D2080EDB6A090EDB6A0E0EDBCFF6FF32
:1003B0000F0EDBCFF7FF100EDBCFF8FF0800F55074
:1003C000DF6EDF5014E011EC06F011E220EC06F0D5
:1003D00003E1151C01E1BCD2BBDB01E3DB2A090E02
:1003E000DB2AD9500E0FE96E000ECBDBE7D7D3DA4C
:1003F00001E1B4D2ADD2C6DA110EEECFDBFF120EA0
:10040000EDCFDBFF110EDBCFE6FF120EDBCFE6FFF9
:1004100097EC0EF0E552E552130EF3CFDBFF140E0E
:10042000F4CFDBFF060EDB5004E0130ED0DB01E25D
:100430000EDB0BEC06F002E2130EDBDAAFDB05E0BD
:10044000040EC5DB02E2050ED4DA030EDBB005D0E4
:10045000A2DA01E07DD2080EDB6A090EDB6A110E1A
:10046000DBCFE9FF120EDBCFEAFFEFCFDFFFDF507C
:1004700014E0D7DB12E2E4DB03E1151C01E168D2F2
:1004800067DB01E3DB2A090EDB2A110EDB2ADBCF57
:10049000E9FF120EE8E3DB2AE6D77DDA01E15ED25E
:1004A00057D2030EDB8E070EDB0410E195DB040E42
:1004B0005ADB0A0EEECFDBFF0B0EEECFDBFF0C0E8E
:1004C000EECFDBFF0D0EEECFDBFF6CD0070EDB5067
:1004D00003082CE1030EDBAE0DD0B2DA020E76DAA1
:1004E000EFCF14F0156A166A176A14AE39D0156882
:1004F000166835D0F70EDBCF15F0F80EDBCF16F00F
:10050000020E155E000E165AF70E15C0DBFFF80E30
:1005100016C0DBFF15C0E9FF16C0EAFFEFCF14F0ED
:100520000A0E14C0DBFF0B0EDB6A38D0070EDB505F
:10053000020809E1030EDBAE04D059DB16AE10D081
:100540000ED055DB0DD0030EDBAE12D079DA020EE1
:100550003DDAF9DA166A176A15AE02D0166817681E
:10056000E2DA0C0E16C0DBFF0D0E17C0DBFF1AD04F
:10057000F70EDBCF16F0F80EDBCF17F0020E165E8B
:10058000000E175AF70E16C0DBFFF80E17C0DBFF80
:1005900016C0E9FF17C0EAFFD6DAC5DA0C0EDB6A2F
:1005A0000D0EDB6A060EDB5005E1010EF36E050E43
:1005B000F3CFDBFF150EDB6A160EDB6AD950370F5F
:1005C000146E000EDA20156E390E14C0DBFF3A0EE1
:1005D00015C0DBFF380EDB6A080EDB6A0A0EAEDAE6
:1005E000DF50780A12E0200A10E0280A0CE0200A06
:1005F0000AE03F0A06E00D0A02E0200A08E1020EC6
:1006000005D0080E03D0080EDF26100E97DA030E71
:10061000DBBE02D0DB92DB94DB50800B24E08ADA75
:10062000D890030EEB50000A08E6000EEE5C000EB8
:10063000EE58000EEE58000EEE5815E213DA096877
:100640000A680B680C685FEC0EF00A0E00C0DBFF56
:100650000B0E01C0DBFF0C0E02C0DBFF0D0E03C052
:10066000DBFF2D0E08D0030EDBA202D02B0E03D031
:10067000DBA408D0200EF36E170EF3CFDBFF150EB0
:10068000DB2A02D0170EDB6A050EDB5003E1B7D977
:1006900001E189D0760E146E1F0E156E000E166ED7
:1006A000070EDBCF17F0186A196A1A6A17C009F02B
:1006B00018C00AF019C00BF01AC00CF0D3D921EC05
:1006C0000FF014500024F36E15500120F46E1650F4
:1006D0000220F86EF4CFF7FFF3CFF6FF0800090E03
:1006E000F5CFDBFF580EDF5C0FE1610EF36E090EF4
:1006F0007BD90AE3200E146E090EDBCFE7FF1450FE
:10070000E75E090EE7CFDBFF070EDBCF14F0156ABB
:10071000166A176A0FDA14C009F015C00AF016C07D
:100720000BF017C00CF0EECF04F0EECF05F0EECFDB
:1007300006F0EFCF07F021EC0FF007C0EDFF06C089
:10074000EDFF05C0EDFF04C0EFFF390EDBCFE9FF81
:10075000DB063A0EDBCFEAFF01E2DB06090EDBCF58
:10076000EFFF150EDB2A4BD995E1030EDBA61DD05A
:100770006F0EDF5C06E1C1D918E3150EDB285BDAEA
:1007800014D0780EDF5C09E0580EDF5C06E0620EE4
:10079000DF5C03E0420EDF5C08E1020EF36E160E32
:1007A000F3CFDBFF02D0150EDB6A030EDB50100B1C
:1007B0000EE0040EDBCF14F0050EDB50D88014548D
:1007C00006E2060EDB5003E1040EDB5034DA95D965
:1007D0000AE2050EDBCFE7FF150EDB50E75E050EE4
:1007E000E7CFDBFF02D0050EDB6A040EDBCF14F08F
:1007F000160E45D9D880145414E2160EDBCFE6FF4E
:10080000150EDBCFE6FF040EDBCFE6FF050EDB5057
:10081000E552E75CE552D880E754E552D880E754CA
:100820005FD9030EDB50010B0BE1080EDB5008E033
:10083000B2D801E08DD0080EDB50BED8080EDB6ABE
:10084000170EDB5007E088D9170EF1D903E1151C0C
:1008500001E17ED0160EDB5016E07ED9300EE66E3A
:100860009FD802E1151C74E077D9DFCFE6FFE0ECFA
:100870000DF0E552E552E552F4CF15F00001F31CFE
:1008800002E1151C65E0050EDBCF14F0160EDB50FF
:10089000D880145409E2050EDBCFE7FF160EDB50BB
:1008A000E75E050EE7CFDBFF300EE66E050ECBD917
:1008B0004FE1390EDB2ADBCFE9FF3A0E01E3DB2AF9
:1008C000DBCFEAFF090EEFCFDBFFDB500EE044D9B0
:1008D000090EADD902E1151C3BE0390EDB2ADBCF56
:1008E000E9FF3A0EEDE3DB2AEBD755D831E1160EDE
:1008F000DBCFE6FF080EC3D8E552E7245DD82ED043
:10090000070EDB50030A1CE0010A14E0030A07E0AB
:100910007BD9DBCFEEFF020EDBCFEDFF1FD0F5D88A
:10092000196A17AE02D0186819682CD8BCD819C03B
:10093000EEFF14D0EAD817BE186824D8B4D80ED069
:1009400063D9DBCFEFFF0AD07BD905E1151C03E1AA
:10095000F368F46810D0FCD801E3DB2A79D94DEFB5
:1009600000F0010EDBCF14F0020EDBCF15F014C047
:10097000F3FF15C0F4FF3B0EE15C02E2E16AE552D1
:10098000E16ECBD029D9020EB3EF05F061D9080092
:10099000F550DF6E1200200EE66E080E23EF06F013
:1009A000E0EC0DF0E552E552E552F3CF14F0F4CF50
:1009B00015F00001F31C1200146E156AD950010FD6
:1009C0004DD91450EE261550ED221200185E000E7F
:1009D000195AF70E18C0DBFFF80E19C0DBFF18C05C
:1009E000E9FF19C0EAFF1200DBCFF4FFF350F45C1B
:1009F0001200DB50E76E040EE7CFDBFF12000A0E99
:100A0000DBCF14F00B0EDBCF15F00C0EDBCF16F0A6
:100A10000D0EDBCF17F01450151016101710120022
:100A2000130EEECFDBFF140EEDCFDBFF130EDBCF8B
:100A300014F0140EDBCF15F00001800E1514120017
:100A4000F70EDBCF18F0F80EDBCF19F01200050E11
:100A5000DB50E66ED950130F01D9E552E750EE6E28
:100A6000ED6A12000A0EDBCF04F00B0EDBCF05F0AF
:100A70000C0EDBCF06F00D0EDBCF07F01200DBCF44
:100A8000E6FF150EDBCFE6FF050EDB50E552E7244F
:100A9000E552E7241200DB50CED8010EF36E060EAD
:100AA000F3CFDBFF1200EE50EFCFEAFFE96E16C086
:100AB000EEFF17C0EEFF18C0EEFF1200D9CFE6FF21
:100AC000DACFE6FFE1CFD9FFE2CFDAFF1200DFCFC6
:100AD000E6FFE66A72EC0FF0E552E552F3501200C1
:100AE000E76E080EE7CFDBFF1200EECF14F0EECF7B
:100AF00015F0EFCF16F0176A1200050EDBCF14F0D9
:100B0000150EDB50D88014541200010EDBCF16F006
:100B1000020EDBCF17F0186A1200E552E5CFDAFFBC
:100B2000E7CFD9FF12000A0E14C0DBFF0B0E15C071
:100B3000DBFF1200D9500A0F2EEF06F0F36E070EFE
:100B4000F3CFDBFF1200EECF14F0EFCF15F0120061
:100B5000010EDB2A020E1200FC0EDBCFE6FFFD0EBB
:100B6000DBCFE6FF1200145E000E155AF70E14C01C
:100B7000DBFFF80E15C0DBFF14C0E9FF15C0EAFF6C
:100B80001200DA20EA6EEF2AEECFF6FF000EEF2217
:100B9000EECFF7FFEF22EECFF8FF1200040EDBCF0F
:100BA000E6FF130EDB50E552E75C9ADFDB5004DF13
:100BB000060EDB501200090EDB500A0DF350DF2445
:100BC000D00FE76E090EE7CFDBFFC6EF04F0DB5076
:100BD000F36E050EF4EF04F0F70EDBCF14F0F80E11
:100BE000DBCF15F01200DFCFE6FFD0EF04F028DFF7
:100BF000030EECDE75EF05F022EC00F0E552E55255
:100C0000E552E55200091200BDDEEE50EFCFEAFFDB
:100C1000E96E010E1200130EDB50F36E040EF4EFBA
:100C200004F0040EDB50F36E090EF4EF04F0DBCF9A
:100C3000E6FFD0EF04F0E76E050EE7CFDBFF120012
:100C40008BDFF3EF05F0DBCFE6FF86DFFCEF05F08F
:100C5000D950F90FE96EFF0EC1EF05F0E96E000EF5
:060C6000DA20EA6E12002A
:0A0C6600DACFE4FFE2CFDAFFE9CFB6
:100C7000E4FFEACFE4FFF6CFE4FFF7CFE4FFF5CFE0
:100C8000E4FFF3CFE4FFF4CFE4FFFACFE4FF00EE9C
:100C900000F0140EE80403E3EECFE4FFFBD700EE10
:100CA00014F0070EE80403E3EECFE4FFFBD7E652AF
:100CB000F2B2F292F0A02DD0F0900001AC2B000E19
:100CC000AD23010EE66EE66A8FEC0AF0E552E552BE
:100CD000ACC0E6FFADC0E6FF1F0E1B6E1E0E1C6E05
:100CE0001D6A1BC0E6FF1CC0E6FF1DC0E6FF800EAC
:100CF000E66E000EE66E3BEC0DF01E6E070EE15E3A
:100D00001E50800EE66E000EE66E02EC0BF0E55211
:100D1000E552F0A22DD0F0920001AC07000EAD5BC1
:100D2000010EE66EE66A8FEC0AF0E552E552ACC0C1
:100D3000E6FFADC0E6FF1F0E1B6E1E0E1C6E1D6A89
:100D40001BC0E6FF1CC0E6FF1DC0E6FF800EE66E7E
:100D5000000EE66E3BEC0DF01E6E070EE15E1E50BF
:100D6000800EE66E000EE66E02EC0BF0E552E552E8
:100D7000E55200EE1AF0070EE80403E3E5CFEDFFBD
:100D8000FBD700EE13F0140EE80403E3E5CFEDFF0C
:100D9000FBD7E5CFFAFFE5CFF4FFE5CFF3FFE5CFD3
:100DA000F5FFE5CFF7FFE5CFF6FFE5CFEAFFE5CFAB
:100DB000E9FFE5CFDAFF11004D0EE66EE66A3C0E64
:100DC000E66E22EC0EF0E552E552E5521200D9CF64
:100DD000E6FFE1CFD9FF020EE126DE6ADD6ADE6AB8
:100DE000DD6ADECF14F0DDCF15F0FB0EDBCF16F0A1
:100DF000FC0EDBCF17F015501718E8AE02D01734F1
:100E000004D01650145C175015581DE2FD0EDBCFB0
:100E100014F0FE0EDBCF15F0DE501424E96EDD5029
:100E20001520EA6EEF50E66E45EC0FF0E552010E2C
:100E3000E66EE66A22EC0BF0E552E552DF2A010E7F
:100E400001E3DB2ACED70D0EE66E45EC0FF0E5523E
:100E5000020EE15C02E2E16AE552E16EE552E7CFA3
:100E6000D9FF120010EC0CF0F3CFAAF0F4CFABF0E6
:100E7000E66AE66A8FEC0AF0E552E552160E146E49
:100E80001E0E156E166A14C0E6FF15C0E6FF16C0EA
:100E9000E6FF800EE66E000EE66E3BEC0DF0176E80
:100EA000050EE15E1750800EE66E000EE66E02EC57
:100EB0000BF0E552E552AAC0E6FFABC0E6FF02EC3C
:100EC0000BF0E552E5521200840ED56E0F0EC16E86
:100ED000F28EF28CD08EF08CF08EF194F086F08849
:100EE000F288F18CF18AF188936E956AF8EC09F03A
:100EF00063DFE66AE66A8FEC0AF0E552E5520A0E15
:100F0000146E1E0E156E166A14C0E6FF15C0E6FFBD
:100F100016C0E6FF800EE66E000EE66E3BEC0DF0AE
:100F2000176E050EE15E1750800EE66E000EE66E3F
:100F300002EC0BF0E552E552F40EE66E010EE66EA1
:100F400022EC0BF0E552E552FCEC0AF081B647D0FA
:100F500081B63BD00001AE2BFA0EE66EE66A22ECBB
:100F60000BF0E552E552E66A0E0EE66E8FEC0AF0E3
:100F7000E552E5520001AE51E66EE66A060E146EC9
:100F80001E0E156E166A14C0E6FF15C0E6FF16C0E9
:100F9000E6FF800EE66E000EE66E3BEC0DF0176E7F
:100FA000070EE15E1750800EE66E000EE66E02EC54
:100FB0000BF0E552E5520001AE51060805E2AF1D07
:100FC000AF6FFCEC0AF001D0C3D70001AE6BF40E9A
:100FD000E66E010EE66E22EC0BF0E552E5520001E2
:100FE000AF5102E03AD8B2D73DDFACC0E6FFADC0AA
:100FF000E6FF86D8E552E552010EE66EE66A8FEC12
:101000000AF0E552E552ACC0E6FFADC0E6FFF40ED3
:10101000146E1D0E156E166A14C0E6FF15C0E6FFAD
:1010200016C0E6FF800EE66E000EE66E3BEC0DF09D
:10103000176E070EE15E1750800EE66E000EE66E2C
:1010400002EC0BF0E552E552020EE66EE66A22EC87
:101050000BF0E552E5527AD71200E66AE66A8FECA9
:101060000AF0E552E552EE0E146E1D0E156E166A6C
:1010700014C0E6FF15C0E6FF16C0E6FF800EE66E60
:10108000000EE66E3BEC0DF0176E050EE15E17509C
:10109000800EE66E000EE66E02EC0BF0E552E552B5
:1010A000010EE66EE66A8FEC0AF0E552E552ACC03E
:1010B000E6FFADC0E6FF1F0E146E1E0E156E166A1B
:1010C00014C0E6FF15C0E6FF16C0E6FF800EE66E10
:1010D000000EE66E3BEC0DF0176E070EE15E17504A
:1010E000800EE66E000EE66E02EC0BF0E552E55265
:1010F000640EE66EE66A22EC0BF0E552E552120051
:10110000D9CFE6FFE1CFD9FF020EE126AAC0E6FF64
:10111000ABC0E6FF42D8E552E552F3CFDEFFF4CF95
:10112000DDFFDECF14F0DDCF15F0FD0EDBCF16F0C6
:10113000FE0EDBCF17F015501718E8AE02D01734AB
:1011400004D01650145C1750155803E2838A839814
:101150001AD0DECF14F0DDCF15F0FD0EDBCF16F088
:10116000FE0EDBCF17F017501518E8AE02D015347D
:1011700004D01450165C1550175803E2839A8388E4
:1011800002D08398839A020EE15C02E2E16AE552A2
:10119000E16EE552E7CFD9FF1200D9CFE6FFE1CFEC
:1011A000D9FF020EE126DE6ADD6A010EE76EFD0E52
:1011B000DBCFE9FFFE0EDBCFEAFFE750E926000EAA
:1011C000EA22EF50D00F0A0DF3CF14F0F4CF15F050
:1011D000D9CFE9FFDACFEAFF1450EE261550ED2201
:1011E000020EE76EFD0EDBCFE9FFFE0EDBCFEAFF5E
:1011F000E750E926000EEA22EF50D00FDE26000E5F
:10120000DD22FD0EDBCFE9FFFE0EDBCFEAFFEF5064
:1012100031080DE1FD0EDBCFE9FFFE0EDBCFEAFF6B
:10122000EF50D00F640DF350DE26000EDD22FD0ED0
:10123000DBCFE9FFFE0EDBCFEAFFEF502D080AE11E
:10124000DECF14F0DDCF15F0141E151E14C0DEFF26
:1012500015C0DDFFDECF14F0DDCF15F014C0F3FFB5
:1012600015C0F4FF020EE15C03E200D0E16AE55232
:0A127000E16EE552E7CFD9FF12004E
:06127A00060EE66E84EC96
:101280000FF0E55212000C0EE66EB0EC0FF0E552D6
:101290001200050EE66E84EC0FF0E5521200030E0C
:1012A000E66E84EC0FF0E5521200D9CFE6FFE1CFF5
:1012B000D9FFFE0EDB44010B010BE8B08284E8A0ED
:1012C0008294060E146EFE0EDB5014C0E7FFE75248
:1012D00004E0E8427F0BE706FCE1010BE8B0828600
:1012E000E8A08296FE0EDB50E00BE838E840010BE8
:1012F000E8B08380E8A08390FE0EDB380F0B010B73
:10130000E8B08382E8A08392E552E7CFD9FF1200CC
:10131000D9CFE6FFE1CFD9FFFE0EDB40E840E84041
:101320001F0B010BE8B08284E8A08294FE0EDB4024
:10133000E8403F0B010BE8B08286E8A08296FE0EE3
:10134000DB407F0B010BE8B08380E8A08390FE0EAA
:10135000DB50010BE8B08382E8A08392E552E7CF2F
:10136000D9FF1200D9CFE6FFE1CFD9FF8394FE0E5B
:10137000DBCFE6FF9ADFE55282888298020EF36E99
:10138000FE0EDBCFF4FFF350F45C02E282DF01D00B
:101390007ADFFE0EDBCFE6FFBBDFE5528288829864
:1013A000020EF36EFE0EDBCFF4FFF350F45C02E2AC
:1013B00070DF01D068DFE552E7CFD9FF1200D9CF47
:1013C000E6FFE1CFD9FF8384FE0EDBCFE6FF6DDFC2
:1013D000E5528288829857DFFE0EDBCFE6FF98DF6A
:1013E000E552828882984FDFE552E7CFD9FF12009D
:1013F000D9CFE6FFE1CFD9FFE65294989594949423
:1014000094969590959283948298DF6ADFCF14F03A
:10141000120EE76E1418E8AE02D0143403D0E75071
:10142000D880145403E329DFDF2AF0D7030EE66ED9
:101430006FDFE5528288829820DF1FDF30DF030EE6
:10144000E66E66DFE552828882981DDF1CDF1BDFB7
:10145000030EE66E5DDFE5528288829820DF020E81
:10146000E66E56DFE5528288829819DF280EE66E16
:1014700079DFE5520C0EE66E75DFE552010EE66E81
:1014800071DFE552060EE66E6DDFE552800EE66E08
:1014900069DFE552E552E552E7CFD9FF1200D9CF17
:1014A000E6FFE1CFD9FFE652DF6ADFCF14F0156A1D
:1014B00014BE156814C0E6FF15C0E6FFFD0EDBCFB5
:1014C000E6FFFE0EDBCFE6FF97EC0EF0E552E552AD
:1014D000E552E7CF15F0E552E7CF14F0F3CF16F061
:1014E000F4CF17F01650145C1750155813E2DFCFE5
:1014F00014F0156A14BE1568FD0EDB501424E96E55
:10150000FE0EDB501520EA6EEF50E66E58DFE55216
:10151000DF2ACBD7E552E552E7CFD9FF1200D9CF6A
:10152000E6FFE1CFD9FFFD0EDB5007E1FE0EDB50F9
:10153000800FE66E17DFE55206D0FE0EDB50C00FBF
:10154000E66E10DFE552E552E7CFD9FF1200D9CFA2
:10155000E6FFE1CFD9FFE652DF6AFD0EDBCFE6FF03
:10156000FE0EDBCFE6FFDBDFE552E552DF50E76E34
:10157000FB0EDBCFE9FFFC0EDBCFEAFFE750E926ED
:10158000000EEA22EF501DE0DF50E76EFB0EDBCFCE
:10159000E9FFFC0EDBCFEAFFE750E926000EEA2266
:1015A000EF50E66E0CDFE552DF2AFE0EDB2AFD0E61
:1015B000DBCFE6FFFE0EDBCFE6FFB1DFE552E55203
:1015C000D5D7E552E552E7CFD9FF1200D9CFE6FFD4
:1015D000E1CFD9FFFD0EDBCFE6FFFE0EDBCFE6FF4E
:1015E0009EDFE552E552FC0EDBCFE6FFE8DEE5527A
:1015F000E552E7CFD9FF1200010EE66EB3DEE552E9
:1016000049EF09F0D9CFE6FFE1CFD9FFFD0EDBCFDF
:10161000E9FFFE0EDBCFEAFFEF5010E0FD0EDBCF5F
:10162000E9FFFE0EDBCFEAFFEF50E66EC8DEE552C3
:10163000FD0EDB2AFE0E01E3DB2AE8D7E552E7CFF9
:10164000D9FF1200D9CFE6FFE1CFD9FF020EE12684
:10165000DE6ADD6ADECF14F0DDCF15F0FD0EDBCFE4
:1016600016F0FE0EDBCF17F01650145C175015580D
:1016700006E215DEDF2A010E01E3DB2AEBD7020EBC
:10168000E15C02E2E16AE552E16EE552E7CFD9FFA3
:02169000120046
:0E169200899292921200899292821200D9CF10
:1016A000E6FFE1CFD9FFE652DF6A9282010E146EA7
:1016B0008050020B01E0010E145C03E1010EDF6EAD
:1016C00001D0DF6ADF5000D0E552E552E7CFD9FF05
:1016D0001200D9CFE6FFE1CFD9FFE652DADFF00EF4
:1016E000B06FB02FFED7F00EB06FB02FFED7D4DFA3
:1016F000460EB06FB02FFED7D2DFDF6ECD0EB06FCB
:10170000B02FFED7CD0EB06FB02FFED7C5DFDF50A4
:1017100000D0E552E552E7CFD9FF1200D9CFE6FF5E
:10172000E1CFD9FFFE0EDB500BE0B3DF060EB06F4A
:10173000B02FFED7B1DF400EB06FB02FFED70AD06A
:10174000A8DF3C0EB06FB02FFED7A6DF0A0EB06F39
:10175000B02FFED7E552E7CFD9FF1200D9CFE6FF71
:10176000E1CFD9FFE65295DF060EB06FB02FFED75E
:1017700093DF090EB06FB02FFED791DFDF6E370E0B
:10178000B06FB02FFED7DF5000D0E552E552E7CF63
:10179000D9FF1200D9CFE6FFE1CFD9FFE652DF6AC9
:1017A000080EDF5C0FE2FE0EDB50010BE66EB6DFCB
:1017B000E552FE0EDBCFF3FFF390F342F3CFDBFFF6
:1017C000DF2AEED7E552E552E7CFD9FF1200D9CF95
:1017D000E6FFE1CFD9FF020EE126010EDB6ADF6AE8
:1017E000080EDF5C0EE2010EDBCFF3FFF390F34255
:1017F000F3CFDBFFB3DF000902E0010EDB8EDF2A4F
:10180000EFD7010EDB50146E020EE15C03E200D054
:10181000E16AE552E16E1450E552E7CFD9FF1200BC
:1018200058DFCC0EE66EB6DFE552440EE66EB2DF50
:10183000E552CDDF000901E1FCD74BDFCC0EE66EAF
:10184000A9DFE552BE0EE66EA5DFE552C0DF00015E
:10185000B16FB26BBCDF146E14C015F0146A145073
:101860000001B1131550B213B251800B0DE02D0ED3
:10187000B3C0E9FFB4C0EAFFEF6EB11FB21F010EA3
:10188000B127000EB2231CD0B1C014F0B2C015F0C5
:10189000040ED89015321432E804FBE1640E145C97
:1018A000000E155807E3310EB3C0E9FFB4C0EAFFDC
:1018B000EF6E06D0200EB3C0E9FFB4C0EAFFEF6EB2
:1018C000B1C014F0B2C015F0040ED8901532143225
:1018D000E804FBE10A0E0B6E0C6A14C006F015C09A
:1018E00007F05CEC0FF006C014F007C015F00A0E0C
:1018F0000B6E0C6A14C006F015C007F05CEC0FF01C
:1019000002C014F003C015F0300E1426000E15228C
:10191000010E0001EA6AB325E96EB451EA2214C04F
:10192000EFFFB1C014F0B2C015F0040ED89015321C
:101930001432E804FBE10A0E0B6E0C6A14C006F0C8
:1019400015C007F05CEC0FF002C014F003C015F0F6
:10195000300E1426000E1522020E0001EA6AB3258D
:10196000E96EB451EA2214C0EFFF030EEA6AB32510
:10197000E96EB451EA222E0EEF6E0F0E0001B11582
:10198000146E156A710E1502F3CF15F0020E1402D3
:10199000F3501526710E1402F3CF14F0F4501526EF
:1019A000E80E0B6E030E0C6E14C006F015C007F0A7
:1019B0005CEC0FF006C014F007C015F0300E1426D2
:1019C000000E1522040E0001EA6AB325E96EB45137
:1019D000EA2214C0EFFF0F0E0001B115146E156A54
:1019E000710E1502F3CF15F0020E1402F3501526F6
:1019F000710E1402F3CF14F0F4501526640E0B6E22
:101A00000C6A14C006F015C007F05CEC0FF006C0BD
:101A100014F007C015F00A0E0B6E0C6A14C006F025
:101A200015C007F05CEC0FF002C014F003C015F015
:101A3000300E1426000E1522050E0001EA6AB325A9
:101A4000E96EB451EA2214C0EFFF060EEA6AB3252C
:101A5000E96EB451EA22DF0EEF6E070EEA6AB32593
:101A6000E96EB451EA22430EEF6EB3C0F3FFB4C087
:061A7000F4FF00D012009B
:0A1A7600D9CFE6FFDACFE6FFE1CF9B
:101A8000D9FFE2CFDAFFE652E652E652E652D950EB
:101A9000F90F146EFF0EDA20156E020E14C0DBFF74
:101AA000030E15C0DBFF020EDBCFE6FF030EDBCF1C
:101AB000E6FFF90EDBCFE6FFFA0EDBCFE6FFFB0E0B
:101AC000DBCFE6FFD950FC0FE66EFF0EDA20E66EA4
:101AD00038EC00F0146E070EE15C02E2E16AE552B8
:101AE000E16E1450F3CFDEFFF4CFDDFFFC0EDBCF51
:101AF000E9FFFD0EDBCFEAFFEF6ADECF14F0DDCFAA
:101B000015F014C0F3FF15C0F4FF040EE15C02E20F
:101B1000E16AE552E16EE552E5CFDAFFE7CFD9FFA2
:021B20001200B1
:0E1B22002A0EF66E000EF76E000EF86E000131
:101B30000900F550A56F0900F550A66F03E1A567F0
:101B400001D03DD00900F550A06F0900F550A16FFC
:101B50000900F550A26F09000900F550E96E09006F
:101B6000F550EA6E090009000900F550A36F09005D
:101B7000F550A46F09000900F6CFA7F0F7CFA8F041
:101B8000F8CFA9F0A0C0F6FFA1C0F7FFA2C0F8FFF0
:101B90000001A35302E1A45307E00900F550EE6EE3
:101BA000A307F8E2A407F9D7A7C0F6FFA8C0F7FF7C
:101BB000A9C0F8FF0001A507000EA65BBFD7120061
:101BC000D9CFE6FFDACFE6FFE1CFD9FFE2CFDAFFE8
:101BD000FB0EDBCF14F0FC0EDBCF15F00001800E06
:101BE00015141AE1FB0EDBCFE9FFFC0EDBCFEAFF99
:101BF000EECFF3FFEDCFF4FFEE2A000EEF22F3CF8E
:101C0000E9FFF4CFEAFFFD0EDBCFEFFFEF50156ADF
:101C1000F36E15C0F4FF10D0FB0EDB50FE0806E19A
:101C2000FD0EDBCFE6FFA2EC0FF005D0FD0EDBCF03
:101C3000E6FFC4EC0FF0E552E552E5CFDAFFE7CF5F
:041C4000D9FF1200B6
:0C1C4400D9CFE6FFDACFE6FFE1CFD9FFF1
:101C5000E2CFDAFFAC6AAB6AFD0EDBB0AC88DBA288
:101C600002D0AC8CAB8CDBB4AC8EDBA602D0AB88E4
:101C700001D0AB8ADBA802D0AC8401D0AC949E9892
:101C8000DBAC02D09D8A01D09D9A9E9ADBAE02D039
:101C90009D8801D09D98FB0EDB50AF6EFB0EFC0EB5
:101CA000DBCF15F015C014F0156A1450B06EAC8A75
:0E1CB000AB8EE552E5CFDAFFE7CFD9FF120089
:021CBE000450D0
:101CC0000902F3CF00F0F4CF01F00A02F35001262D
:101CD000000EF420026E04500B02F3500226000E98
:101CE000F420036E04500C02F35003260550090241
:101CF000F3500126F4500222000E032205500A027E
:101D0000F3500226F450032205500B02F350032631
:101D100006500902F3500226F450032206500A022C
:0E1D2000F350032607500902F3500326120069
:021D2E00FE0EA7
:101D3000E3CFE9FFFF0EE3CFEAFFF36AF46AEE5266
:101D400003E0F34AF42AFBD71200FF0EE3CFF8FFBB
:101D5000E552FF0EE3CFF7FFE552FF0EE3CFF6FFAC
:101D6000E552E66AE66AE66A0900F55209E0FD0E08
:101D7000E32A05E1FE0EE32A02E1FF0EE32AF4D78F
:101D8000FD0EE3CF05F0FE0EE3CF06F0FF0EE3CF2E
:041D900007F0120046
:0C1D940007C013F006C012F006500B024E
:101DA000F4CF05F0F3CF04F007500C02F4CF07F0A6
:101DB000F3CF06F00B02F3500526F4500622E86A32
:101DC000072212500C02F3500526F4500622E86A4E
:101DD00007220CAEF0EF0EF01250065E1350075AB9
:0E1DE00013AE000C0B50065E0C50075A000CA0
:021DEE0053455B
:101DF000545550006E6869657420646F2073657473
:101E00003A20253264002D25640053746172746990
:101E10006E672E2E2E00647331386232303A004ED7
:101E20004849455420444F3A20253264204300302D
:101E300030302E30302043003030302E30302043D0
:011E400000A1
:0E1E4200036A026A016A006A200EE76ED890F9
:101E500004360536063607360036013602360336B6
:101E60000950005C0A5001580B5002580C5003589E
:101E700009E30950005E0A50015A0B50025A0C50F7
:0A1E8000035A042AE72EE4D71200EB
:061E8A00D9CFE6FFDACF1C
:101E9000E6FFE1CFD9FFE2CFDAFFACAC04D0AC90E3
:101EA0000001B5B3AC80FD0EDB50AD6EE552E5CF61
:081EB000DAFFE7CFD9FF1200B1
:081EB800036A026A100EE76ED6
:101EC000D89006360736023603360B50025C0C50AB
:101ED000035805E30B50025E0C50035A062AE72E06
:041EE000F0D7120025
:0C1EE400F36AF46AFF0EE124E96EFF0EC1
:101EF000E220EA6EED6607D02F0EEF6404D03A0EB2
:081F0000EF6001D0F32A12008A
:081F0800FF0EE3501F6E480EAE
:101F100001D04C0EE76EE72EFED7E76AE72EFED71C
:081F20001F2EF7D7000012008C
:081F280015EE00F025EE00F0BB
:101F3000F86A0F9C91EC0DF0C5EC0FF064EC07F023
:041F4000FBD71200B9
:0C1F4400FF0EE350ACBA04D0AF6AAB8EC5
:101F5000AC8A949CACA2FED7AD6EF36EF46A12000C
:101F6000FF0EE350E84E1200000000D000D000D079
:061F7000E82EFAD7120072
:0A1F76003031323334353637383954
:071F80006162636465660005
:021F8800120045
:021F8A00120043
:041F8C002F1E2500DF
:021F900000004F
:021F9200381EF7
:020000040030CA
:0100010002FC
:010003001EDE
:010005008179
:010006008178
:00000001FF
