:020000040000FA
:0600000068EF0FF0120092
:0400080049EF06F0C6
:0400180033EF06F0CC
:06002A000200401F00006F
:10003000A900000002000000341F00009000000032
:040040000C000000B0
:0C0044005EEC05F0FB0EDBCFF3FFDB06EB
:10005000F35000090AE0ACEC05F0FA0E17EC06F0DC
:10006000F3E1151CF1E1010E01D0000E8DEF05F05A
:100070005EEC05F03B0EE12402E3E168E652E16E3E
:10008000010EDB6A020EDB6AF90EDBCFF6FFFA0E19
:10009000DBCFF7FFFB0EDBCFF8FF0800F550DF6E7C
:1000A000DF5002E1B1EF04F0250EDF5C02E0A4EFC7
:1000B00004F0030EDB6A040EDB6A050EDB6A060E33
:1000C000DB6A070EDB6AC6EC04F02D0EDF5C0CE089
:1000D0002B0EDF5C09E0200EDF5C06E0230EDF5C08
:1000E00003E0300EDF5C1AE1DF50300A14E0130A3F
:1000F0000FE0030A0AE00B0A05E0060AE4E1030E3A
:10010000DB80E1D7030EDB82DED7030EDB84DBD797
:10011000030EDB86D8D7030EDB88D5D72A0EDF5C2B
:100120001BE1C2EC04F010EC05F010E0030EDB80E4
:1001300006680768130EDBCF0BF0140EDBCF0CF054
:10014000DFEC0EF0040E04C0DBFF03D0130EF9EC5D
:1001500004F0C6EC04F00BD0090EDB6A67EC05F086
:1001600003E0DBEC05F0FAD7090EF9EC04F0030E1E
:10017000DBB0DB982E0EDF5C1BE1C6EC04F02A0E30
:10018000DF5C0BE1C2EC04F010EC05F003E1130EB0
:100190004BEC05F0C6EC04F00BD0090EDB6A67EC03
:1001A00005F003E0DBEC05F0FAD7090E4BEC05F0A7
:1001B000680EDF5C07E1C6EC04F0680EDF5C1DE151
:1001C000030E18D0740EDF5C17E07A0EDF5C14E0CB
:1001D000480EDF5C06E0540EDF5C03E05A0EDF5C85
:1001E00002E1020E07D06C0EDF5C03E06A0EDF5CFA
:1001F00004E1010E9EEC05F0C9DBDF506E0A01E15F
:100200007FD31E0A01E192D1200A01E18FD13F0A7A
:1002100001E149D11A0A01E146D10D0A01E143D1B8
:10022000200A01E140D13A0A01E13DD1200A01E171
:100230003AD1260A01E135D10D0A01E132D11A0A7B
:1002400001E1D9D0200A4AE0300A1FE0460A0EE058
:10025000250A01E083D3D950F90FE96EFF0EDA20A9
:10026000EA6E010EEE5E000EEE5AEE5AACEC05F0B0
:10027000250EE66E95DB03E1151C01E169D3A8ECC0
:1002800005F001E26BD3DB2A69D3080EDB6A040EAA
:10029000DB50010806E2040EDB0470EC05F0DB50D5
:1002A0008BDB080EDB5009E0030EDB50010B05E190
:1002B00072DB01E04DD3080EDB6A64DBEFCFDFFFBA
:1002C00020EC06F003E1151C01E142D3A8EC05F097
:1002D00001E3DB2A60DB01E141D33AD3070EDB50B7
:1002E00002080FE1ECEC05F0030EB3EC05F00E0E86
:1002F000EECFDBFF0F0EEECFDBFF100EEECFDBFFFE
:1003000020D0F70EDBCF17F0F80EDBCF18F0020E7F
:10031000175E000E185AF70E17C0DBFFF80E18C054
:10032000DBFF17C0E9FF18C0EAFFA3EC05F0166A6F
:100330000E0E14C0DBFF0F0E15C0DBFF100E16C033
:10034000DBFF0E0EDBCFE6FF0F0EDBCFE6FF100E5E
:10035000DBCFE6FF87EC0EF0E552E552E552130ED7
:1003600005C0DBFF140E06C0DBFF060EDB5005E008
:10037000130EE7EC05F001E26ADB0BEC06F002E29B
:10038000130E37DBCEEC05F006E0040EE7EC05F0CB
:1003900002E2050E2EDB030EDBB005D0FCDA01E035
:1003A000D7D2080EDB6A090EDB6A0E0EDBCFF6FF32
:1003B0000F0EDBCFF7FF100EDBCFF8FF0800F55074
:1003C000DF6EDF5014E011EC06F011E220EC06F0D5
:1003D00003E1151C01E1BCD2BBDB01E3DB2A090E02
:1003E000DB2AD9500E0FE96E000ECBDBE7D7D3DA4C
:1003F00001E1B4D2ADD2C6DA110EEECFDBFF120EA0
:10040000EDCFDBFF110EDBCFE6FF120EDBCFE6FFF9
:1004100079EC0EF0E552E552130EF3CFDBFF140E2C
:10042000F4CFDBFF060EDB5004E0130ED0DB01E25D
:100430000EDB0BEC06F002E2130EDBDAAFDB05E0BD
:10044000040EC5DB02E2050ED4DA030EDBB005D0E4
:10045000A2DA01E07DD2080EDB6A090EDB6A110E1A
:10046000DBCFE9FF120EDBCFEAFFEFCFDFFFDF507C
:1004700014E0D7DB12E2E4DB03E1151C01E168D2F2
:1004800067DB01E3DB2A090EDB2A110EDB2ADBCF57
:10049000E9FF120EE8E3DB2AE6D77DDA01E15ED25E
:1004A00057D2030EDB8E070EDB0410E195DB040E42
:1004B0005ADB0A0EEECFDBFF0B0EEECFDBFF0C0E8E
:1004C000EECFDBFF0D0EEECFDBFF6CD0070EDB5067
:1004D00003082CE1030EDBAE0DD0B2DA020E76DAA1
:1004E000EFCF14F0156A166A176A14AE39D0156882
:1004F000166835D0F70EDBCF15F0F80EDBCF16F00F
:10050000020E155E000E165AF70E15C0DBFFF80E30
:1005100016C0DBFF15C0E9FF16C0EAFFEFCF14F0ED
:100520000A0E14C0DBFF0B0EDB6A38D0070EDB505F
:10053000020809E1030EDBAE04D059DB16AE10D081
:100540000ED055DB0DD0030EDBAE12D079DA020EE1
:100550003DDAF9DA166A176A15AE02D0166817681E
:10056000E2DA0C0E16C0DBFF0D0E17C0DBFF1AD04F
:10057000F70EDBCF16F0F80EDBCF17F0020E165E8B
:10058000000E175AF70E16C0DBFFF80E17C0DBFF80
:1005900016C0E9FF17C0EAFFD6DAC5DA0C0EDB6A2F
:1005A0000D0EDB6A060EDB5005E1010EF36E050E43
:1005B000F3CFDBFF150EDB6A160EDB6AD950370F5F
:1005C000146E000EDA20156E390E14C0DBFF3A0EE1
:1005D00015C0DBFF380EDB6A080EDB6A0A0EAEDAE6
:1005E000DF50780A12E0200A10E0280A0CE0200A06
:1005F0000AE03F0A06E00D0A02E0200A08E1020EC6
:1006000005D0080E03D0080EDF26100E97DA030E71
:10061000DBBE02D0DB92DB94DB50800B24E08ADA75
:10062000D890030EEB50000A08E6000EEE5C000EB8
:10063000EE58000EEE58000EEE5815E213DA096877
:100640000A680B680C6841EC0EF00A0E00C0DBFF74
:100650000B0E01C0DBFF0C0E02C0DBFF0D0E03C052
:10066000DBFF2D0E08D0030EDBA202D02B0E03D031
:10067000DBA408D0200EF36E170EF3CFDBFF150EB0
:10068000DB2A02D0170EDB6A050EDB5003E1B7D977
:1006900001E189D01E0E146E1F0E156E000E166E2F
:1006A000070EDBCF17F0186A196A1A6A17C009F02B
:1006B00018C00AF019C00BF01AC00CF0D3D90CEC1A
:1006C0000FF014500024F36E15500120F46E1650F4
:1006D0000220F86EF4CFF7FFF3CFF6FF0800090E03
:1006E000F5CFDBFF580EDF5C0FE1610EF36E090EF4
:1006F0007BD90AE3200E146E090EDBCFE7FF1450FE
:10070000E75E090EE7CFDBFF070EDBCF14F0156ABB
:10071000166A176A0FDA14C009F015C00AF016C07D
:100720000BF017C00CF0EECF04F0EECF05F0EECFDB
:1007300006F0EFCF07F00CEC0FF007C0EDFF06C09E
:10074000EDFF05C0EDFF04C0EFFF390EDBCFE9FF81
:10075000DB063A0EDBCFEAFF01E2DB06090EDBCF58
:10076000EFFF150EDB2A4BD995E1030EDBA61DD05A
:100770006F0EDF5C06E1C1D918E3150EDB285BDAEA
:1007800014D0780EDF5C09E0580EDF5C06E0620EE4
:10079000DF5C03E0420EDF5C08E1020EF36E160E32
:1007A000F3CFDBFF02D0150EDB6A030EDB50100B1C
:1007B0000EE0040EDBCF14F0050EDB50D88014548D
:1007C00006E2060EDB5003E1040EDB5034DA95D965
:1007D0000AE2050EDBCFE7FF150EDB50E75E050EE4
:1007E000E7CFDBFF02D0050EDB6A040EDBCF14F08F
:1007F000160E45D9D880145414E2160EDBCFE6FF4E
:10080000150EDBCFE6FF040EDBCFE6FF050EDB5057
:10081000E552E75CE552D880E754E552D880E754CA
:100820005FD9030EDB50010B0BE1080EDB5008E033
:10083000B2D801E08DD0080EDB50BED8080EDB6ABE
:10084000170EDB5007E088D9170EF1D903E1151C0C
:1008500001E17ED0160EDB5016E07ED9300EE66E3A
:100860009FD802E1151C74E077D9DFCFE6FFFFECDB
:100870000DF0E552E552E552F4CF15F00001F31CFE
:1008800002E1151C65E0050EDBCF14F0160EDB50FF
:10089000D880145409E2050EDBCFE7FF160EDB50BB
:1008A000E75E050EE7CFDBFF300EE66E050ECBD917
:1008B0004FE1390EDB2ADBCFE9FF3A0E01E3DB2AF9
:1008C000DBCFEAFF090EEFCFDBFFDB500EE044D9B0
:1008D000090EADD902E1151C3BE0390EDB2ADBCF56
:1008E000E9FF3A0EEDE3DB2AEBD755D831E1160EDE
:1008F000DBCFE6FF080EC3D8E552E7245DD82ED043
:10090000070EDB50030A1CE0010A14E0030A07E0AB
:100910007BD9DBCFEEFF020EDBCFEDFF1FD0F5D88A
:10092000196A17AE02D0186819682CD8BCD819C03B
:10093000EEFF14D0EAD817BE186824D8B4D80ED069
:1009400063D9DBCFEFFF0AD07BD905E1151C03E1AA
:10095000F368F46810D0FCD801E3DB2A79D94DEFB5
:1009600000F0010EDBCF14F0020EDBCF15F014C047
:10097000F3FF15C0F4FF3B0EE15C02E2E16AE552D1
:10098000E16ECBD029D9020EB3EF05F061D9080092
:10099000F550DF6E1200200EE66E080E23EF06F013
:1009A000FFEC0DF0E552E552E552F3CF14F0F4CF31
:1009B00015F00001F31C1200146E156AD950010FD6
:1009C0004DD91450EE261550ED221200185E000E7F
:1009D000195AF70E18C0DBFFF80E19C0DBFF18C05C
:1009E000E9FF19C0EAFF1200DBCFF4FFF350F45C1B
:1009F0001200DB50E76E040EE7CFDBFF12000A0E99
:100A0000DBCF14F00B0EDBCF15F00C0EDBCF16F0A6
:100A10000D0EDBCF17F01450151016101710120022
:100A2000130EEECFDBFF140EEDCFDBFF130EDBCF8B
:100A300014F0140EDBCF15F00001800E1514120017
:100A4000F70EDBCF18F0F80EDBCF19F01200050E11
:100A5000DB50E66ED950130F01D9E552E750EE6E28
:100A6000ED6A12000A0EDBCF04F00B0EDBCF05F0AF
:100A70000C0EDBCF06F00D0EDBCF07F01200DBCF44
:100A8000E6FF150EDBCFE6FF050EDB50E552E7244F
:100A9000E552E7241200DB50CED8010EF36E060EAD
:100AA000F3CFDBFF1200EE50EFCFEAFFE96E16C086
:100AB000EEFF17C0EEFF18C0EEFF1200D9CFE6FF21
:100AC000DACFE6FFE1CFD9FFE2CFDAFF1200DFCFC6
:100AD000E6FFE66A46EC0FF0E552E552F3501200ED
:100AE000E76E080EE7CFDBFF1200EECF14F0EECF7B
:100AF00015F0EFCF16F0176A1200050EDBCF14F0D9
:100B0000150EDB50D88014541200010EDBCF16F006
:100B1000020EDBCF17F0186A1200E552E5CFDAFFBC
:100B2000E7CFD9FF12000A0E14C0DBFF0B0E15C071
:100B3000DBFF1200D9500A0F2EEF06F0F36E070EFE
:100B4000F3CFDBFF1200EECF14F0EFCF15F0120061
:100B5000010EDB2A020E1200FC0EDBCFE6FFFD0EBB
:100B6000DBCFE6FF1200145E000E155AF70E14C01C
:100B7000DBFFF80E15C0DBFF14C0E9FF15C0EAFF6C
:100B80001200DA20EA6EEF2AEECFF6FF000EEF2217
:100B9000EECFF7FFEF22EECFF8FF1200040EDBCF0F
:100BA000E6FF130EDB50E552E75C9ADFDB5004DF13
:100BB000060EDB501200090EDB500A0DF350DF2445
:100BC000D00FE76E090EE7CFDBFFC6EF04F0DB5076
:100BD000F36E050EF4EF04F0F70EDBCF14F0F80E11
:100BE000DBCF15F01200DFCFE6FFD0EF04F028DFF7
:100BF000030EECDE75EF05F022EC00F0E552E55255
:100C0000E552E55200091200BDDEEE50EFCFEAFFDB
:100C1000E96E010E1200130EDB50F36E040EF4EFBA
:100C200004F0040EDB50F36E090EF4EF04F0DBCF9A
:100C3000E6FFD0EF04F0E76E050EE7CFDBFF120012
:100C40008BDFF3EF05F0DBCFE6FF86DFFCEF05F08F
:100C5000D950F90FE96EFF0EC1EF05F0E96E000EF5
:060C6000DA20EA6E12002A
:0A0C6600DACFE4FFE2CFDAFFE65236
:100C7000F2A40BD0D59E0001982B000E9923E50E0F
:100C8000D66E480ED76EF294D58EE552E5CFDAFFD8
:100C90001100DACFE4FFE2CFDAFFE9CFE4FFEACFD9
:100CA000E4FFE652F2B2F292F0A00BD0F090000115
:100CB000975107E092C0E9FF93C0EAFFEE2A000EC9
:100CC000EF22F0A20BD0F0920001975107E092C002
:100CD000E9FF93C0EAFFEE06000EEF5AE552E5CFBA
:100CE000EAFFE5CFE9FFE5CFDAFF1100D9CFE6FF54
:100CF000E1CFD9FF2FEC0CF0F3CF90F0F4CF91F0CF
:100D0000E66AE66AAEEC0AF0E552E552A20E146E0F
:100D10001D0E156E166A14C0E6FF15C0E6FF16C05C
:100D2000E6FF800EE66E000EE66E5AEC0DF0176ED2
:100D3000050EE15E1750800EE66E000EE66E21ECA9
:100D40000BF0E552E55290C0E6FF91C0E6FF21ECC2
:100D50000BF0E552E552E552E7CFD9FF1200850EC0
:100D6000D56E0F0EC16EF28EF28CD08EF08CF08E9E
:100D7000F194F28AF284F086F088F288F18CF18A9C
:100D8000F188936E956A17EC0AF0E66A020EE66E39
:100D9000AEEC0AF0E552E552950E146E1D0E156E7E
:100DA000166A14C0E6FF15C0E6FF16C0E6FF800E07
:100DB000E66E000EE66E5AEC0DF0176E050EE15E63
:100DC0001750800EE66E000EE66E21EC0BF0E55239
:100DD000E552F40EE66E010EE66E41EC0BF0E552C4
:100DE000E5521BEC0BF081B63ED01BEC0BF081B64C
:100DF00037D00001962B3C0EE66EE66A41EC0BF014
:100E0000E552E552E66A96C0E6FFAEEC0AF0E5521E
:100E1000E552930E146E1D0E156E166A14C0E6FF91
:100E200015C0E6FF16C0E6FF800EE66E000EE66E09
:100E30005AEC0DF0176E050EE15E1750800EE66E4F
:100E4000000EE66E21EC0BF0E552E55200019651E2
:100E50000E0805E2971D976F1BEC0BF001D0C7D76A
:100E60000001966BFCD90001975102E04ED8BBD728
:100E700090C0E6FF91C0E6FF39DFE552E55294C02D
:100E8000E6FF95C0E6FF10D9E552E552010EE66E89
:100E9000E66AAEEC0AF0E552E552000198519A5D1F
:100EA000146E9B519955156E14C0E6FF15C0E6FFF0
:100EB00094C0E6FF95C0E6FF830E166E1D0E176EFA
:100EC000186A16C0E6FF17C0E6FF18C0E6FF800EDE
:100ED000E66E000EE66E5AEC0DF0196E090EE15E3C
:100EE00019500001DF0E866F800EE66E000EE66E72
:100EF00021EC0BF0E552E552020EE66EE66A41EC9B
:100F00000BF0E552E5526FD7120081A65BD00001CD
:100F1000940E926F000E936FE66AE66AAEEC0AF0EA
:100F2000E552E552720E146E1D0E156E166A14C04F
:100F3000E6FF15C0E6FF16C0E6FF800EE66E000E67
:100F4000E66E5AEC0DF0176E050EE15E1750800E3E
:100F5000E66E000EE66E21EC0BF0E552E552010E56
:100F6000E66EE66AAEEC0AF0E552E55294C0E6FFA2
:100F700095C0E6FF6C0E146E1D0E156E166A14C039
:100F8000E6FF15C0E6FF16C0E6FF800EE66E000E17
:100F9000E66E5AEC0DF0176E070EE15E1750000179
:100FA000DF0E836F800EE66E000EE66E21EC0BF016
:100FB000E552E552320EE66EE66A41EC0BF0E55280
:100FC000E552A3D7F40EE66E010EE66E41EC0BF08F
:100FD000E552E5521BEC0BF081A658D000019A0EA9
:100FE000926F000E936FE66AE66AAEEC0AF0E55285
:100FF000E5525F0E146E1D0E156E166A14C0E6FFE4
:1010000015C0E6FF16C0E6FF800EE66E000EE66E27
:101010005AEC0DF0176E050EE15E1750800EE66E6D
:10102000000EE66E21EC0BF0E552E552010EE66E85
:10103000E66AAEEC0AF0E552E5529AC0E6FF9BC0C4
:10104000E6FF580E146E1D0E156E166A14C0E6FFEC
:1010500015C0E6FF16C0E6FF800EE66E000EE66ED7
:101060005AEC0DF0176E070EE15E1750800EE66E1B
:10107000000EE66E21EC0BF0E552E552320EE66E04
:10108000E66A41EC0BF0E552E552A6D7F40EE66EA7
:10109000010EE66E41EC0BF0E552E5520001971DA2
:1010A000976F986B996B1200D9CFE6FFE1CFD9FF0C
:1010B000020EE12690C0E6FF91C0E6FF60D8E5523F
:1010C000E552F3CFDEFFF4CFDDFFDECF14F0DDCF4E
:1010D00015F0FD0EDBCF16F0FE0EDBCF17F015502E
:1010E0001718E8AE02D0173404D01650145C17500D
:1010F000155803E2838A83981AD0DECF14F0DDCF2F
:1011000015F0FD0EDBCF16F0FE0EDBCF17F01750FB
:101110001518E8AE02D0153404D01450165C1550E2
:10112000175803E2839A838802D08398839A000138
:1011300098519A5D146E9B519955156E153404E2C1
:1011400014500008000E155410E3986B996B050EAF
:1011500099AF02D0D89003D0985D000E995902E261
:10116000838CF5D7839C986B996B020EE15C02E24D
:10117000E16AE552E16EE552E7CFD9FF1200D9CF1F
:10118000E6FFE1CFD9FF020EE126DE6ADD6A010E3D
:10119000E76EFD0EDBCFE9FFFE0EDBCFEAFFE75087
:1011A000E926000EEA22EF50D00F0A0DF3CF14F01B
:1011B000F4CF15F0D9CFE9FFDACFEAFF1450EE26CD
:1011C0001550ED22020EE76EFD0EDBCFE9FFFE0E9D
:1011D000DBCFEAFFE750E926000EEA22EF50D00FFE
:1011E000DE26000EDD22FD0EDBCFE9FFFE0EDBCF9B
:1011F000EAFFEF5031080DE1FD0EDBCFE9FFFE0EF7
:10120000DBCFEAFFEF50D00F640DF350DE26000E67
:10121000DD22FD0EDBCFE9FFFE0EDBCFEAFFEF5054
:101220002D080AE1DECF14F0DDCF15F0141E151ED7
:1012300014C0DEFF15C0DDFFDECF14F0DDCF15F0EA
:1012400014C0F3FF15C0F4FF020EE15C03E200D00E
:10125000E16AE552E16EE552E7CFD9FF1200D9CF3E
:10126000E6FFE1CFD9FF020EE126DE6ADD6ADE6A23
:10127000DD6ADECF14F0DDCF15F0D890155004E60E
:10128000060E145C000E15580DE28376640EE66EB1
:10129000E66A41EC0BF0E552E552DF2A010E01E36C
:1012A000DB2AE7D7020EE15C02E2E16AE552E16E79
:0812B000E552E7CFD9FF12005F
:0812B800060EE66E58EC0FF083
:1012C000E55212000C0EE66E84EC0FF0E5521200AF
:1012D000050EE66E58EC0FF0E5521200030EE66EB6
:1012E00058EC0FF0E5521200D9CFE6FFE1CFD9FF5D
:1012F000FE0EDB44010B010BE8B08284E8A082946F
:10130000060E146EFE0EDB5014C0E7FFE75204E039
:10131000E8427F0BE706FCE1010BE8B08286E8A01B
:101320008296FE0EDB50E00BE838E840010BE8B097
:101330008380E8A08390FE0EDB380F0B010BE8B032
:101340008382E8A08392E552E7CFD9FF1200D9CF7C
:10135000E6FFE1CFD9FFFE0EDB40E840E8401F0B7F
:10136000010BE8B08284E8A08294FE0EDB40E840E6
:101370003F0B010BE8B08286E8A08296FE0EDB40B0
:101380007F0B010BE8B08380E8A08390FE0EDB505A
:10139000010BE8B08382E8A08392E552E7CFD9FF42
:1013A0001200D9CFE6FFE1CFD9FF8394FE0EDBCF49
:1013B000E6FF9ADFE55282888298020EF36EFE0EF7
:1013C000DBCFF4FFF350F45C02E282DF01D07ADF7E
:1013D000FE0EDBCFE6FFBBDFE55282888298020E6D
:1013E000F36EFE0EDBCFF4FFF350F45C02E270DF2D
:1013F00001D068DFE552E7CFD9FF1200D9CFE6FF71
:10140000E1CFD9FF8384FE0EDBCFE6FF6DDFE5522F
:101410008288829857DFFE0EDBCFE6FF98DFE55229
:10142000828882984FDFE552E7CFD9FF1200D9CFEB
:10143000E6FFE1CFD9FFE652949895949494949660
:101440009590959283948298DF6ADFCF14F0120E04
:10145000E76E1418E8AE02D0143403D0E750D880F9
:10146000145403E329DFDF2AF0D7030EE66E6FDFA3
:10147000E5528288829820DF1FDF30DF030EE66EA0
:1014800066DFE552828882981DDF1CDF1BDF030EBA
:10149000E66E5DDFE5528288829820DF020EE66EFE
:1014A00056DFE5528288829819DF280EE66E79DFD2
:1014B000E5520C0EE66E75DFE552010EE66E71DF49
:1014C000E552060EE66E6DDFE552800EE66E69DFD0
:1014D000E552E552E552E7CFD9FF1200D9CFE6FF3A
:1014E000E1CFD9FFE652DF6ADFCF14F0156A14BEF0
:1014F000156814C0E6FF15C0E6FFFD0EDBCFE6FF62
:10150000FE0EDBCFE6FF79EC0EF0E552E552E55238
:10151000E7CF15F0E552E7CF14F0F3CF16F0F4CF94
:1015200017F01650145C1750155813E2DFCF14F063
:10153000156A14BE1568FD0EDB501424E96EFE0E0C
:10154000DB501520EA6EEF50E66E58DFE552DF2AD9
:10155000CBD7E552E552E7CFD9FF1200D9CFE6FF4E
:10156000E1CFD9FFFD0EDB5007E1FE0EDB50800F0F
:10157000E66E17DFE55206D0FE0EDB50C00FE66EBA
:1015800010DFE552E552E7CFD9FF1200D9CFE6FFD1
:10159000E1CFD9FFE652DF6AFD0EDBCFE6FFFE0E9C
:1015A000DBCFE6FFDBDFE552E552DF50E76EFB0EF7
:1015B000DBCFE9FFFC0EDBCFEAFFE750E926000EA8
:1015C000EA22EF501DE0DF50E76EFB0EDBCFE9FFB4
:1015D000FC0EDBCFEAFFE750E926000EEA22EF50CF
:1015E000E66E0CDFE552DF2AFE0EDB2AFD0EDBCFB6
:1015F000E6FFFE0EDBCFE6FFB1DFE552E552D5D7C1
:10160000E552E552E7CFD9FF1200D9CFE6FFE1CF8F
:10161000D9FFFD0EDBCFE6FFFE0EDBCFE6FF9EDF40
:10162000E552E552FC0EDBCFE6FFE8DEE552E5527F
:10163000E7CFD9FF1200010EE66EB3DEE55268EF88
:1016400009F0D9CFE6FFE1CFD9FFFD0EDBCFE9FFEF
:10165000FE0EDBCFEAFFEF5010E0FD0EDBCFE9FF1F
:10166000FE0EDBCFEAFFEF50E66EC8DEE552FD0E60
:10167000DB2AFE0E01E3DB2AE8D7E552E7CFD9FFEC
:101680001200D9CFE6FFE1CFD9FF020EE126DE6AD4
:10169000DD6ADECF14F0DDCF15F0FD0EDBCF16F0E6
:1016A000FE0EDBCF17F01650145C1750155806E2EB
:1016B00015DEDF2A010E01E3DB2AEBD7020EE15C27
:1016C00002E2E16AE552E16EE552E7CFD9FF12008E
:1016D000899292921200899292821200D9CFE6FFEB
:1016E000E1CFD9FFE652DF6A9282010E146E80507C
:1016F000020B01E0010E145C03E1010EDF6E01D06C
:10170000DF6ADF5000D0E552E552E7CFD9FF120083
:10171000D9CFE6FFE1CFD9FFE652DADFF00EA66FB0
:10172000A62FFED7F00EA66FA62FFED7D4DF460E4B
:10173000A66FA62FFED7D2DFDF6ECD0EA66FA62F27
:10174000FED7CD0EA66FA62FFED7C5DFDF5000D087
:10175000E552E552E7CFD9FF1200D9CFE6FFE1CF3E
:10176000D9FFFE0EDB500BE0B3DF060EA66FA62FEF
:10177000FED7B1DF400EA66FA62FFED70AD0A8DF96
:101780003C0EA66FA62FFED7A6DF0A0EA66FA62FC9
:10179000FED7E552E7CFD9FF1200D9CFE6FFE1CF60
:1017A000D9FFE65295DF060EA66FA62FFED793DF70
:1017B000090EA66FA62FFED791DFDF6E370EA66F3C
:1017C000A62FFED7DF5000D0E552E552E7CFD9FF74
:1017D0001200D9CFE6FFE1CFD9FFE652DF6A080E4B
:1017E000DF5C0FE2FE0EDB50010BE66EB6DFE5526A
:1017F000FE0EDBCFF3FFF390F342F3CFDBFFDF2AE4
:10180000EED7E552E552E7CFD9FF1200D9CFE6FF78
:10181000E1CFD9FF020EE126010EDB6ADF6A080E76
:10182000DF5C0EE2010EDBCFF3FFF390F342F3CF68
:10183000DBFFB3DF000902E0010EDB8EDF2AEFD70A
:10184000010EDB50146E020EE15C03E200D0E16A8F
:10185000E552E16E1450E552E7CFD9FF120058DF90
:10186000CC0EE66EB6DFE552440EE66EB2DFE55210
:10187000CDDF000901E1FCD74BDFCC0EE66EA9DF1E
:10188000E552BE0EE66EA5DFE552C0DF0001A76F90
:10189000A86BBCDF146E14C015F0146A145000015C
:1018A000A7131550A813A851800B0DE02D0EA9C049
:1018B000E9FFAAC0EAFFEF6EA71FA81F010EA72726
:1018C000000EA8231CD0A7C014F0A8C015F0040E69
:1018D000D89015321432E804FBE1640E145C000E5B
:1018E000155807E3310EA9C0E9FFAAC0EAFFEF6E61
:1018F00006D0200EA9C0E9FFAAC0EAFFEF6EA7C07C
:1019000014F0A8C015F0040ED89015321432E80473
:10191000FBE10A0E0B6E0C6A14C006F015C007F04E
:1019200030EC0FF006C014F007C015F00A0E0B6E75
:101930000C6A14C006F015C007F030EC0FF002C0BE
:1019400014F003C015F0300E1426000E1522010EFF
:101950000001EA6AA925E96EAA51EA2214C0EFFF44
:10196000A7C014F0A8C015F0040ED8901532143298
:10197000E804FBE10A0E0B6E0C6A14C006F015C0F9
:1019800007F030EC0FF002C014F003C015F0300E79
:101990001426000E1522020E0001EA6AA925E96E3E
:1019A000AA51EA2214C0EFFF030EEA6AA925E96EE4
:1019B000AA51EA222E0EEF6E0F0E0001A715146E2B
:1019C000156A710E1502F3CF15F0020E1402F350D2
:1019D0001526710E1402F3CF14F0F4501526E80EFC
:1019E0000B6E030E0C6E14C006F015C007F030EC41
:1019F0000FF006C014F007C015F0300E1426000ECC
:101A00001522040E0001EA6AA925E96EAA51EA220C
:101A100014C0EFFF0F0E0001A715146E156A710EAA
:101A20001502F3CF15F0020E1402F3501526710EB5
:101A30001402F3CF14F0F4501526640E0B6E0C6AEA
:101A400014C006F015C007F030EC0FF006C014F01B
:101A500007C015F00A0E0B6E0C6A14C006F015C014
:101A600007F030EC0FF002C014F003C015F0300E98
:101A70001426000E1522050E0001EA6AA925E96E5A
:101A8000AA51EA2214C0EFFF060EEA6AA925E96E00
:101A9000AA51EA22DF0EEF6E070EEA6AA925E96E67
:101AA000AA51EA22430EEF6EA9C0F3FFAAC0F4FFC9
:041AB00000D0120050
:0C1AB400D9CFE6FFDACFE6FFE1CFD9FF83
:101AC000E2CFDAFFE652E652E652E652D950F90F7B
:101AD000146EFF0EDA20156E020E14C0DBFF030E2B
:101AE00015C0DBFF020EDBCFE6FF030EDBCFE6FF08
:101AF000F90EDBCFE6FFFA0EDBCFE6FFFB0EDBCF06
:101B0000E6FFD950FC0FE66EFF0EDA20E66E38ECE9
:101B100000F0146E070EE15C02E2E16AE552E16E4C
:101B20001450F3CFDEFFF4CFDDFFFC0EDBCFE9FF77
:101B3000FD0EDBCFEAFFEF6ADECF14F0DDCF15F04C
:101B400014C0F3FF15C0F4FF040EE15C02E2E16A89
:101B5000E552E16EE552E5CFDAFFE7CFD9FF12009B
:101B60002A0EF66E000EF76E000EF86E00010900E8
:101B7000F550A16F0900F550A26F03E1A16701D0F4
:101B80003DD00900F5509C6F0900F5509D6F09008C
:101B9000F5509E6F09000900F550E96E0900F550F7
:101BA000EA6E090009000900F5509F6F0900F55021
:101BB000A06F09000900F6CFA3F0F7CFA4F0F8CF8B
:101BC000A5F09CC0F6FF9DC0F7FF9EC0F8FF000186
:101BD0009F5302E1A05307E00900F550EE6E9F0706
:101BE000F8E2A007F9D7A3C0F6FFA4C0F7FFA5C08D
:0E1BF000F8FF0001A107000EA25BBFD7120094
:021BFE00D9CF3D
:101C0000E6FFDACFE6FFE1CFD9FFE2CFDAFFFB0E46
:101C1000DBCF14F0FC0EDBCF15F00001800E1514A5
:101C20001AE1FB0EDBCFE9FFFC0EDBCFEAFFEECFC4
:101C3000F3FFEDCFF4FFEE2A000EEF22F3CFE9FF22
:101C4000F4CFEAFFFD0EDBCFEFFFEF50156AF36E26
:101C500015C0F4FF10D0FB0EDB50FE0806E1FD0EB0
:101C6000DBCFE6FF76EC0FF005D0FD0EDBCFE6FF15
:101C700098EC0FF0E552E552E5CFDAFFE7CFD9FF58
:021C8000120050
:0E1C820004500902F3CF00F0F4CF01F00A0283
:101C9000F3500126000EF420026E04500B02F350A4
:101CA0000226000EF420036E04500C02F3500326AB
:101CB00005500902F3500126F4500222000E0322BF
:101CC00005500A02F3500226F450032205500B027D
:101CD000F350032606500902F3500226F450032263
:101CE00006500A02F350032607500902F350032658
:021CF0001200E0
:0E1CF200FE0EE3CFE9FFFF0EE3CFEAFFF36A39
:101D0000F46AEE5203E0F34AF42AFBD71200FF0E06
:101D1000E3CFF8FFE552FF0EE3CFF7FFE552FF0EEA
:101D2000E3CFF6FFE552E66AE66AE66A0900F55295
:101D300009E0FD0EE32A05E1FE0EE32A02E1FF0EB3
:101D4000E32AF4D7FD0EE3CF05F0FE0EE3CF06F055
:081D5000FF0EE3CF07F01200C3
:081D58002534642873290043BF
:101D60006169206461742074696D650025336420A5
:101D7000430043616920646174206E686965742062
:101D8000646F004E443A253364204320543A25348E
:101D90006473002A004D4159204150205452554E41
:101DA0004700447331386232303A003030302E30E0
:0D1DB000302043003030302E303020430012
:021DBE0007C05C
:101DC00013F006C012F006500B02F4CF05F0F3CF6B
:101DD00004F007500C02F4CF07F0F3CF06F00B022B
:101DE000F3500526F4500622E86A072212500C022E
:101DF000F3500526F4500622E86A07220CAE05EFE0
:101E00000FF01250065E1350075A13AE000C0B5021
:081E1000065E0C50075A000C9D
:081E1800036A026A016A006A14
:101E2000200EE76ED89004360536063607360036A3
:101E30000136023603360950005C0A5001580B5037
:101E400002580C50035809E30950005E0A50015A29
:101E50000B50025A0C50035A042AE72EE4D7120002
:101E6000036A026A100EE76ED8900636073602360D
:101E700003360B50025C0C50035805E30B50025E16
:0C1E80000C50035A062AE72EF0D712007F
:041E8C00F36AF46A97
:101E9000FF0EE124E96EFF0EE220EA6EED6607D048
:101EA0002F0EEF6404D03A0EEF6001D0F32A120037
:101EB000FF0EE3501B6E480E01D04C0EE76EE72E6E
:101EC000FED7E76AE72EFED71B2EF7D700001200D9
:101ED00015EE00F025EE00F0F86A0F9CB0EC0DF066
:0C1EE00099EC0FF0AFEC06F0FBD71200FD
:041EEC00FF0EE350B2
:101EF000ACBA04D0AF6AAB8EAC8A949CACA2FED7CD
:081F0000AD6EF36EF46A1200ED
:081F0800FF0EE350E84E120049
:0E1F1000000000D000D000D0E82EFAD712005A
:021F1E00303160
:0F1F2000323334353637383961626364656600B1
:021F300012009D
:021F320012009B
:0C1F3400AB1D000025000000000028008C
:021F4000B41DCE
:020000040030CA
:0100010002FC
:010003001EDE
:010005008179
:010006008178
:00000001FF
